:020000040800F2
:1000000038A90020796F0008C1020008C302000867
:10001000C5020008C7020008C9020008000000006D
:10002000000000000000000000000000CB020008FB
:10003000CD02000800000000CF020008D102000835
:10004000936F0008936F0008936F0008936F000888
:10005000936F0008936F0008936F0008936F000878
:10006000936F0008936F0008936F0008936F000868
:10007000936F0008936F0008936F0008936F000858
:10008000936F0008936F0008936F0008936F000848
:10009000936F0008936F0008936F0008936F000838
:1000A000936F0008936F0008936F0008936F000828
:1000B000DD9E00085968000803690008936F000876
:1000C000936F0008936F0008936F0008936F000808
:1000D000936F0008076F0008936F0008936F000884
:1000E000936F0008936F0008936F0008936F0008E8
:1000F000936F0008936F0008936F0008936F0008D8
:10010000936F0008936F0008936F0008936F0008C7
:10011000936F0008936F00087F690008936F0008D1
:10012000936F0008936F0008936F0008936F0008A7
:1001300000F002F800F076F80AA090E8000C824483
:100140008344AAF10107DA4501D100F06BF8AFF260
:10015000090EBAE80F0013F0010F18BFFB1A43F0A5
:100160000103184758320200783202000A444FF067
:10017000000C10F8013B13F0070408BF10F8014B06
:100180001D1108BF10F8015B641E05D010F8016B4B
:10019000641E01F8016BF9D113F0080F1EBF10F8AF
:1001A000014BAD1C0C1B09D16D1E58BF01F801CBD2
:1001B000FAD505E014F8016B01F8016B6D1EF9D555
:1001C0009142D6D37047000000230024002500266A
:1001D000103A28BF78C1FBD8520728BF30C148BFAA
:1001E0000B607047662918F0F68564290AF07E8353
:1001F00075290AF07B8378290AF0B28363290BF012
:10020000F48073290BF0F980002070471FB50BF0C4
:1002100049F904000020002117F032FDE0601FBD05
:1002200010B510BD0BF040FA1146FFF7EFFF00F0DC
:1002300009F80BF05EFA03B4FFF7F2FF03BC06F017
:10024000B9FD0000092006F070FD4FF4165148205A
:1002500006F0BAFD482006F053FC00F0E7F801F084
:1002600096FB06F08FFA154841684820884706F04B
:10027000B1FE00F005F906F09BFB4FF4A06006F01C
:1002800043FF40F2E7344721204606F00DFB40F2E1
:10029000CF252946204606F045FB2946204606F094
:1002A000E7FA0121402007F0BDF9042012F048F9D7
:1002B0000EF00EF909F0FAF8FEE70000C401002084
:1002C0007047FEE7FEE7FEE7FEE7704770477047BE
:1002D000704700000CB500224C4800920192016862
:1002E00041F4803101604FF4A063016801F40031F2
:1002F00001910099491C0091019911B90099994205
:10030000F3D10168890333D50121019140490A687D
:1003100042F010020A600A6822F003020A600A68CA
:1003200042F002020A6041684160416841604168F0
:1003300041F480614160416821F47C114160416871
:1003400041F4E8114160016841F080710160016889
:100350008901FCD5416821F003014160416841F009
:10036000020141604168C1F381010229FAD10CBD4B
:1003700001920CBD254810B5016841F001010160F2
:100380004168244A114041600168234A11400160DC
:10039000016821F480210160416821F4FE0141607F
:1003A0004FF41F018160FFF795FF1C494FF000607B
:1003B000086010BD154A10B55068194B10F00C01BB
:1003C000184803D0042901D0082901D0036012E0A5
:1003D0005168536801F470114FF0020413F4803F28
:1003E00004EB914102D053689B0301D50E4B00E012
:1003F0000B4B5943016051680A4AC1F30311121DA6
:10040000515C0268CA40026010BD0000001002404A
:10041000002002400000FFF8FFFFF6FE08ED00E0BC
:1004200000127A000000002000093D0038B50121CB
:10043000242007F000F94FF48074ADF8004010203C
:100440008DF8030003200C4D8DF802006946284604
:1004500006F009FF2146284606F06FFF0420074CEE
:10046000ADF800006946204606F0FDFE0421204656
:1004700006F063FF38BD0000000801400014014091
:1004800008B50121442007F0D6F81C20ADF8000083
:1004900048208DF803006946364806F0E4FE012046
:1004A000ADF8000028208DF803006946324806F0B8
:1004B000DAFE08BD2DE9F041304C2F4F2D4D0126BD
:1004C00008B1267001E02078A0B11021284606F07E
:1004D00020FFB0B10821284606F01BFF88B1042197
:1004E000284606F016FF60B10121384606F011FFDC
:1004F000012806D01021284606F00BFF012824D041
:1005000035E00A2006F03DFB00202070102128462F
:1005100006F0FFFE80B10821284606F0FAFE70B111
:100520000421284606F0F5FE58B10121384606F0B0
:10053000F0FE012807D01AE00120BDE8F08102207A
:10054000FBE70320F9E70420F7E70821284606F037
:10055000E0FE01280BD10421284606F0DAFE01282E
:1005600005D10121384606F0D4FE00B926700020DE
:10057000E3E70000001801400008014014000020DB
:1005800070B506464FF48071FE4C204606F0D7FE4B
:1005900065152946204606F0D2FE3146FA4806F097
:1005A000D5FE8021204606F0CAFE8021204606F0B6
:1005B000C4FE29462046BDE8704006F0BEBE70B5B8
:1005C000F04C06464FF48071204606F0B6FE6515E5
:1005D0002946204606F0B3FE3146EB4806F0B6FE4B
:1005E0008021204606F0ABFE8021204606F0A5FEC5
:1005F00029462046BDE8704006F09FBE2DE9F04731
:10060000E14F4FF0883038603D1D2860DE4E0020FD
:100610000C363060DB4CA915204606F08EFE4FF4F8
:1006200000794946204606F08AFE4021204606F021
:1006300086FED6488088A0F50941893902D102207A
:1006400006F088FA384606F06BFE804640212046C8
:1006500006F073FE4946204606F06FFE4FF0333039
:10066000386028604FF6FF7030604046BDE8F08784
:1006700070B50E46FFF784FFC24C4FF480712046E0
:1006800006F05BFE65152946204606F058FE314609
:10069000BD4806F05BFE8021204606F050FE80211A
:1006A000204606F04AFE29462046BDE8704006F086
:1006B00044BE10B5FFF764FFBDE810409EE7B348A5
:1006C00000895DE770B5AF4C06464FF48071204657
:1006D00006F033FE65152946204606F030FE314609
:1006E000A94806F033FE8021204606F028FE80212E
:1006F000204606F022FE29462046BDE8704006F05E
:100700001CBEC0F34511C20AC00200EB41101044E8
:1007100080B270472DE9F84F9C4E0D460446B188D3
:10072000280A00903046DFF85C82DFF85CA240893E
:10073000A1F513424FF480774FF400794FEA142B60
:10074000413A15D0A1F5A642103A11D03346A1F591
:10075000D04C9A791B881B1B5B1EBCF1040C75D016
:10076000A1F5A04CBCF5A26C6ED0012A6DD03FE182
:10077000FFF706FF4FF480714646404606F0DDFD68
:100780004946304606F0DBFD59465746504606F0CE
:10079000DDFD8021304606F0D2FD8021304606F096
:1007A000CCFD4946304606F0C8FD4FF48071304616
:1007B00006F0C3FD4946304606F0C1FDE1B23846B9
:1007C00006F0C4FD8021304606F0B9FD8021304698
:1007D00006F0B3FD4946304606F0AFFD6B48808910
:1007E000FFF7CEFE4FF48071304606F0A6FD494675
:1007F000304606F0A4FD3846009906F0A7FD80219A
:10080000304606F09CFD8021304606F096FD4946B4
:10081000304606F092FD4FF48071304606F08DFDB3
:100820004946304606F08BFDE9B2384606F08EFDAB
:100830008021304606F083FD8021304606F07DFDA4
:1008400049463046CFE001E054E0D0E0012A00D133
:100850009CB2FFF795FEBB463946404606F06DFD5B
:100860004946404606F06BFD210A5746504606F0C1
:100870006DFD8021404606F062FD8021404606F075
:100880005CFD4946404606F058FD5946404606F094
:1008900054FD4946404606F052FDE1B2384606F0A6
:1008A00055FD8021404606F04AFD8021404606F075
:1008B00044FD4946404606F040FDB089FFF760FE22
:1008C0005946404606F039FD4946404606F037FD98
:1008D0003846009906F03AFD8021404606F02FFD8B
:1008E0008021404606F029FD4946404606F025FD98
:1008F000594663E0FFF744FE4FF48071404606F02E
:100900001CFD4946404606F01AFD594657465046DA
:1009100006F01CFD8021404606F011FD8021404676
:1009200006F00BFD4946404606F007FD7089401C65
:1009300080B2FFF725FE4FF48071404606F0FDFCC3
:100940004946404606F0FBFCE1B2384606F0FEFCA4
:100950008021404606F0F3FC8021404606F0EDFC85
:100960004946404606F0E9FCB089FFF709FE4FF41E
:100970008071404606F0E1FC4946404606F0DFFC47
:10098000384605E000100140000C014080060020C0
:10099000009906F0DBFC8021404606F0D0FC802167
:1009A000404606F0CAFC4946404606F0C6FCB089FF
:1009B000401C80B2FFF7E4FD4FF48071404606F022
:1009C000BCFC4946404606F0BAFCE9B2384606F09F
:1009D000BDFC8021404606F0B2FC8021404606F076
:1009E000ACFC49464046BDE8F84F06F0A6BC9CB2B8
:1009F0002146FFF73DFEB0892946BDE8F84F37E6AE
:100A00002DE9F84FFE4D2A88824202D96A888A422F
:100A100002D80020BDE8F88FFFF77CFEA888AA4620
:100A200049F2413B45F2103545F21056584505D084
:100A3000A0F5D041043901D0A84201D12E2005E013
:100A4000B04202D14FF4385000E02220FFF798FD69
:100A5000DFF8B0934FF08830C9F8000009F10401C5
:100A60000860E8494FF6FF780C31C1F80080E64F86
:100A70008915384606F061FC7915384606F05FFCAA
:100A80004021384606F05BFC012006F063F8402167
:100A9000384606F052FC4021384606F050FC012052
:100AA00006F058F8484606F03BFC8146402138469F
:100AB00006F043FCBAF80400584503D0A84201D020
:100AC000B04210D14021384606F039FCCD4806F03E
:100AD00027FC00904021384606F02FFC09F0FF006B
:100AE00008EA00240FE0A0F5D04104390BD14021E1
:100AF000384606F024FC4021384606F01EFCC1486A
:100B000006F00EFC81464FF40071384606F015FCE5
:100B1000BC494FF033300860091D0860B9490C31F9
:100B2000C1F80080BAF80400A0F5134125391ED0A1
:100B3000A0F58A4135391AD0091D18D0A0F5094110
:100B4000893914D0A0F53541053910D0584503D066
:100B5000A84201D0B0420CD14FEAD9204FEAC020C0
:100B6000A10A40EA4111009841EAD02052E74846E4
:100B700050E74846BDE8F84FC3E5A1488088A0F596
:100B8000134141390ED0A0F5D04104390AD0A0F567
:100B9000A641103906D0B1F5007105D040F27311AD
:100BA000072065E5292001E04FF42450E8E494484B
:100BB0008088A0F5134141390DD0A0F5D04104390A
:100BC00009D0A0F5A641103905D0B1F5007104D0C7
:100BD000002107204CE5282001E04FF42050CFE40D
:100BE0002DE9F047864C00252146A379898846F6F1
:100BF0000402012B18D1914216D0082814D2DFE844
:100C000000F00406080A0C0E101206200CE0072063
:100C10000AE0042008E0052006E0012004E00020AE
:100C200002E0032000E00220A1F5134645F2103354
:100C300045F21058413E05D0914203D0994201D06F
:100C400041457DD1082812D2DFE800F011040608E2
:100C50000A0C0E1080250AE0402508E0C02506E0B9
:100C6000202504E0602502E0A02500E0E0254145C4
:100C700002D14FF4585000E03620994203D041454C
:100C800001D045F00805914201D145F00205294601
:100C9000FFF7EEFCA8062088618802D5884202D3BF
:100CA00003E0884201D921806080A0884FF48075DC
:100CB0006E004045544FDFF84C9160897ED1FFF7BC
:100CC0005FFC2946B846384606F037FB31464046B9
:100CD00006F035FB00214F46484606F037FB8021E1
:100CE000404606F02CFB8021404606F026FB3146AC
:100CF000404606F022FB6089401C80B2FFF740FCB2
:100D00002946404606F019FB3146404606F017FBDF
:100D10000021384606F01AFB8021404606F00FFB02
:100D20008021404606F009FB3146404606F005FBAF
:100D30006089801C80B2FFF723FC2946404600E012
:100D400071E106F0FAFA3146404606F0F8FA2088DA
:100D5000401EC0F30F21384606F0F8FA80214046C5
:100D600006F0EDFA8021404606F0E7FA31464046AB
:100D700006F0E3FA6089C01C80B2FFF701FC294647
:100D8000404606F0DAFA3146404606F0D8FA2078B6
:100D9000401EC1B2384606F0D9FA8021404606F01E
:100DA000CEFA8021404606F0C8FA3146404606F0A9
:100DB000C4FAA089FFF7E4FB294600E060E0404662
:100DC00006F0BBFA3146404606F0B9FA0021384633
:100DD00006F0BCFA8021404606F0B1FA8021404678
:100DE00006F0ABFA3146404606F0A7FAA089401C4F
:100DF00080B2FFF7C5FB2946404606F09EFA05E0A3
:100E000080060020000C01400010014031464046A1
:100E100006F095FA0021384606F098FA80214046FF
:100E200006F08DFA8021404606F087FA31464046AA
:100E300006F083FAA089801C80B2FFF7A1FB294647
:100E4000404606F07AFA3146404606F078FA608865
:100E5000401EC0F30F21384606F078FA8021404644
:100E600006F06DFA8021404606F067FA31464046AA
:100E700006F063FAA089C01C80B2FFF781FBB6E0E0
:100E8000FFF77EFB2946B846384606F056FA31464B
:100E9000404606F054FA00214F46484606F056FAFE
:100EA0008021404606F04BFA8021404606F045FA84
:100EB0003146404606F041FA2946404606F03DFAE2
:100EC0003146404606F03BFA0021384606F03EFA2D
:100ED0008021404606F033FA8021404606F02DFA84
:100EE0003146404606F029FA2946404606F025FAE2
:100EF0003146404606F023FA2088401EC0F30F21F9
:100F0000384606F023FA8021404606F018FA802180
:100F1000404606F012FA3146404606F00EFA2946DF
:100F2000404606F00AFA3146404606F008FA2078B4
:100F3000401EC1B2384606F009FA8021404606F04C
:100F4000FEF98021404606F0F8F93146404606F0A9
:100F5000F4F9A089FFF714FB2946404606F0EDF9A5
:100F60003146404606F0EBF90021384606F0EEF92E
:100F70008021404606F0E3F98021404606F0DDF985
:100F80003146404606F0D9F92946404606F0D5F9E3
:100F90003146404606F0D3F90021384606F0D6F92E
:100FA0008021404606F0CBF98021404606F0C5F985
:100FB0003146404606F0C1F92946404606F0BDF9E3
:100FC0003146404606F0BBF96088401EC0F30F2151
:100FD000384606F0BBF98021404606F0B0F9802182
:100FE000404606F0AAF93146404606F0A6F92946E1
:100FF000404606F0A2F93146404606F0A0F9A07836
:10100000401EC1B2384606F0A1F98021404606F0E4
:1010100096F98021404606F090F931464046BDE8F9
:10102000F04706F08AB9082812D2DFE800F004067B
:1010300008110A0C0E1030250AE0102508E02025C2
:1010400006E0382504E0282502E0182500E0082500
:10105000A1F50940893806D0032045F48051BDE848
:10106000F047FFF705BB112046F240012943F6E7A0
:1010700070B5FFF74FFBFFF722FBFE4C4FF480717A
:10108000204606F05AF965152946204606F057F91C
:10109000F94AFA48118806F059F98021204606F0ED
:1010A0004EF98021204606F048F929462046BDE841
:1010B000704006F042B92DE9F74FF14E044682B078
:1010C000B388080A009030460D46DFF8A883DFF8A1
:1010D000ACA34089A3F513414FF480774FF4007916
:1010E0004FEA142B413913D0A3F5A64110390FD084
:1010F000B1F5007118D03246A3F5D04C9179128821
:10110000121B521EBCF1040C66D001297ED0CFE028
:10111000FFF736FA3946404606F00FF94946404691
:1011200006F00DF9594665E0FFF72AFA39464046C0
:1011300006F003F94946404606F001F95946504683
:1011400006F004F98021404606F0F9F88021404677
:1011500006F0F3F84946404606F0EFF87089401C67
:1011600080B2FFF70DFA3946404606F0E6F84946E8
:10117000404606F0E4F8E1B2504606F0E7F8802178
:10118000404606F0DCF88021404606F0D6F8494695
:10119000404606F0D2F8B089FFF7F2F939464046EA
:1011A00006F0CBF84946404606F0C9F8504600998B
:1011B00006F0CCF88021404606F0C1F88021404678
:1011C00006F0BBF84946404606F0B7F8B089401C27
:1011D00080B2FFF7D5F951E0012900D194B2FFF7B1
:1011E000CFF93946404606F0A8F84946404606F091
:1011F000A6F8210A504606F0A9F88021404606F0DC
:101200009EF88021404606F098F800E04FE04946FD
:10121000404606F092F83946404606F08EF84946B8
:10122000404606F08CF8E1B2504606F08FF8802177
:10123000404606F084F88021404606F07EF8494694
:10124000404606F07AF8B089FFF79AF939464046E9
:1012500006F073F84946404606F071F8504600998A
:1012600006F074F88021404606F069F88021404677
:1012700006F063F84946404606F05FF839464046B6
:1012800006F05BF84946404606F059F8E9B2504688
:1012900006F05CF88021404606F051F88021404677
:1012A00006F04BF84946404606F047F807E094B28E
:1012B0002146FFF7DDF9B0892946FFF7D9F939460C
:1012C0004446404606F03BF84D464946204606F067
:1012D00036F831895646504606F038F880212046C7
:1012E00006F02DF88021204606F027F829462046F2
:1012F00006F023F83946204606F01FF82946204616
:1013000006F01DF83046049906F020F880212046AA
:1013100006F015F88021204606F00FF805B02946A2
:101320002046BDE8F04F06F008B82DE9F05F5449BB
:101330002C232A242B2522222126898848F6891944
:101340004FF04E0A4FF04F0B45F2105EF02749F276
:101350004138F8B14A484FF0010C414580F806C0C9
:101360004FF4A07CA0F800C047800FD0A1F5A6479D
:10137000103F0BD0A1F5D047043F4ED0494550D186
:101380000281A0F80AB0A0F80CA060E003814481BB
:1013900085815CE03A484FF0000C414580F806C07A
:1013A00007804FF4A077478011D0A1F5D04CBCF155
:1013B000040C0CD0A1F5A04CBCF5447C07D04945E9
:1013C00014D10281A0F80AA0A0F80CB04CE003816F
:1013D0004481A1F5D0428581043A03D0A1F5A6420B
:1013E000103A41D107804FF4F0710FE071450FD1F1
:1013F0004FF4305101814FF4285141814FF42C5169
:1014000081814FF4F07101804FF4487141802BE0ED
:10141000028120214181868126E0038145818481EA
:1014200015E071450FD14FF4305202814FF428522C
:1014300042814FF42C5282814FF4487202804FF463
:10144000F072428003E00281468120228281A1F570
:10145000D042043A03D0A1F5A642103A04D14FF489
:10146000F0710180A0F802C0BDE8F05F0020FFF736
:10147000B7BB00000010014016000020000C014026
:10148000800600202DE9F05F07461044401E85B21B
:10149000C818401E0E4684B2FE4A4FEA112A114671
:1014A00090884989A0F513434FF4807B4FEA1729B0
:1014B000413B30D0A0F5A643103B2CD0A0F5D04343
:1014C000043B28D0A0F5AA43103B7DD09179012997
:1014D0007BD0A84639463546A0F50942893A75D0F1
:1014E00050204FF0510B4FF0520A53229146FFF714
:1014F000BFF841465846FFF7BBF829465046FFF76C
:10150000B7F821464846FFF7B3F831463846BDE8FC
:10151000F05FFFF7FFB80846FFF732F84FF480712D
:10152000DD4805F00AFF4FF4007B5946DA4805F024
:1015300006FFDFF868834946404605F007FF802133
:10154000D54805F0FCFE8021D34805F0F6FE59464B
:10155000D14805F0F2FE4FF48071CF4805F0EDFE62
:101560005946CD4805F0EBFEF9B2404605F0EEFED7
:101570008021C94805F0E3FE8021C74805F0DDFE63
:101580005946C54805F0D9FE4FF48071C24805F0B0
:10159000D4FE5946C04805F0D2FE290A404605F05F
:1015A000D5FE8021BC4805F0CAFE8021BA4805F06E
:1015B000C4FE5946B84805F0C0FE4FF48071B648E5
:1015C00005F0BBFE594602E07AE08BE180E1B248CB
:1015D00005F0B5FEE9B2404605F0B8FE8021AE4800
:1015E00005F0ADFE8021AC4805F0A7FE5946AA489B
:1015F00005F0A3FEA7488089FEF7C2FF4FF4807173
:10160000A54805F09AFE5946A34805F098FE5146B4
:10161000404605F09BFE80219F4805F090FE80210A
:101620009D4805F08AFE59469B4805F086FE4FF41A
:101630008071994805F081FE5946974805F07FFE74
:10164000F1B2404605F082FE8021934805F077FE16
:101650008021914805F071FE59468F4805F06DFED6
:101660004FF480718C4805F068FE59468A4805F0B1
:1016700066FE210A404605F069FE8021864805F095
:101680005EFE8021844805F058FE5946824805F0E8
:1016900054FE4FF48071804805F04FFE59467E4855
:1016A00005F04DFEE1B2404605F050FE80217A483B
:1016B00005F045FE8021784805F03FFE594602E1DD
:1016C00090460846FEF75CFF5946734805F035FE24
:1016D0004FF40071704805F032FE4946DFF8BC91C6
:1016E000484605F033FE80216B4805F028FE802136
:1016F000694805F022FE4FF40071674805F01DFEB1
:10170000B8F80A00401C80B2FEF73AFF594662481A
:1017100005F013FE4FF400715F4805F010FEF9B2BA
:10172000484605F013FE80215B4805F008FE802145
:10173000594805F002FE4FF40071574805F0FDFDD1
:10174000B8F80A00801C80B2FEF71AFF59465248CA
:1017500005F0F3FD4FF400714F4805F0F0FD290A44
:10176000484605F0F3FD80214B4805F0E8FD802157
:10177000494805F0E2FD4FF40071474805F0DDFDF2
:10178000B8F80A00C01C80B2FEF7FAFE594642487B
:1017900005F0D3FD4FF400713F4805F0D0FDE9B2EC
:1017A000484605F0D3FD80213B4805F0C8FD802167
:1017B000394805F0C2FD4FF40071374805F0BDFD12
:1017C000B8F80C00FEF7DCFE5946334805F0B5FDCD
:1017D0004FF40071304805F0B2FD5146484605F01F
:1017E000B5FD80212C4805F0AAFD80212A4805F08E
:1017F000A4FD4FF40071284805F09FFDB8F80C00D7
:10180000401C80B2FEF7BCFE5946234805F095FD0A
:101810004FF40071204805F092FDF1B2484605F002
:1018200095FD80211C4805F08AFD80211A4805F0AD
:1018300084FD4FF40071184805F07FFDB8F80C00E6
:10184000801C80B2FEF79CFE5946134805F075FDDA
:101850004FF40071104805F072FD210A484605F06A
:1018600075FD80210C4805F06AFD80210A4805F0CD
:1018700064FD4FF40071084805F05FFDB8F80C00F6
:10188000C01C80B2FEF77CFE5946034805F055FDAA
:1018900006E000008006002000100140000C01401E
:1018A0004FF40071FE4805F04AFDE1B2484605F0EC
:1018B0004DFD8021FA4805F042FD8021F84805F0F1
:1018C0003CFD4FF40071BDE8F05FF54805F035BD13
:1018D000442041EA082189B2834688464FF0450AF0
:1018E000462203E61288A046531B5B1ED21B521EE3
:1018F00031469DB294B2EFE52DE9F047E94E8246BC
:101900000024308875884543B088A0F5D04104395B
:1019100002D1B07901280CD000210846FEF7FAFE6A
:10192000FEF7CDFEDE4E4FF480787715DFF8789322
:1019300029E00020B0712A2777814FF02B08A6F804
:101940000C800146FEF7E6FE0120B071A6F80A8081
:10195000B781E5E74146304605F0EFFC39463046B1
:1019600005F0EDFC5146484605F0F0FC802130467C
:1019700005F0E5FC8021304605F0DFFC39463046B5
:1019800005F0DBFC641CAC42E4D3BDE8F0872DE934
:10199000F84F0121192005F04EFE0121C34805F042
:1019A000EDFC4FF4F864ADF8004010208DF8030012
:1019B0000320BB4D8DF802006946284605F053FC14
:1019C0002146284605F0B9FCB74C4FF6FF75ADF837
:1019D00000506946204605F046FC2946204605F0A1
:1019E000ACFC322005F0CDF801210020FEF740FECE
:1019F000322005F0C6F80020FEF75BFEA94C49F244
:101A0000413646F60408A08045F2103945F21057D9
:101A1000FF2804D3A84202D0B0F5134F56D1D320EB
:101A2000FEF7AEFDFEF7EAFDFEF7E8FDFEF7E6FD88
:101A300005EA0020A080FEF7E1FDA1880843A08010
:101A4000B04243D0BF20FEF79BFDFEF7D7FDFEF767
:101A5000D5FDFEF7D3FDFEF7D1FD05EA0020A080FD
:101A6000FEF7CCFDA1880843A08040452ED0D420AD
:101A7000FEF786FDFEF7C2FDFEF7C0FDFEF7BEFDD8
:101A800005EA0020A080FEF7B9FDA1880843A080E8
:101A900048451BD04FF45A40FEF772FDFEF7AEFDED
:101AA0004FF45B40FEF76CFDFEF7A8FD05EA002051
:101AB000A0804FF45C40FEF763FDFEF79FFDA18818
:101AC0000843A080B0F5004F00D1A780A18878A07E
:101AD00008F09CFEA088B0427ED1CF20FEF750FDDA
:101AE0000020FEF76CFDC120FEF769FD3020FEF7F7
:101AF00066FDED20FEF744FD6420FEF760FD032047
:101B0000FEF75DFD1220FEF75AFD8120FEF757FD1E
:101B1000E820FEF735FD8520FEF751FD1020FEF789
:101B20004EFD7A20FEF74BFDCB20FEF729FD392034
:101B3000FEF745FD2C20FEF742FD0020FEF73FFD9D
:101B40003420FEF73CFD0220FEF739FDF720FEF7BA
:101B500017FD2020FEF733FDEA20FEF711FD0020DF
:101B6000FEF72DFD0020FEF72AFDC020FEF708FD40
:101B70001B20FEF724FDC120FEF702FD0120FEF729
:101B80001EFDC520FEF7FCFC3020FEF718FD3020BE
:101B9000FEF715FDC720FEF7F3FCB720FEF70FFD9B
:101BA0003620FEF7EDFC4820FEF709FD3A20FEF74F
:101BB000E7FC5520FEF703FDB120FEF7E1FC002015
:101BC000FEF7FDFC1A20FEF7FAFCB620FEF7D8FC63
:101BD0000A20FEF7F4FC00E0A2E0A220FEF7EFFCF2
:101BE000F220FEF7CDFC0020FEF7E9FC2620FEF7F0
:101BF000C7FC0120FEF7E3FCE020FEF7C1FC0F204C
:101C0000FEF7DDFC2A20FEF7DAFC2820FEF7D7FCE1
:101C10000820FEF7D4FC0E20FEF7D1FC0820FEF7CA
:101C2000CEFC5420FEF7CBFCA920FEF7C8FC4320D5
:101C3000FEF7C5FC0A20FEF7C2FC0F20FEF7BFFC32
:101C40000020FEF7BCFC0020FEF7B9FC0020FEF7E8
:101C5000B6FC0020FEF7B3FCE120FEF791FC00206B
:101C6000FEF7ADFC1520FEF7AAFC1720FEF7A7FC37
:101C70000720FEF7A4FC1120FEF7A1FC0620FEF7CA
:101C80009EFC2B20FEF79BFC5620FEF798FC3C2088
:101C9000FEF795FC0520FEF792FC102010E00000F6
:101CA0000010014080060020000C014000023000BE
:101CB000204C43442049443A25780D0A0000000096
:101CC000FEF77DFC0F20FEF77AFC3F20FEF777FC45
:101CD0003F20FEF774FC0F20FEF771FC2B20FEF76F
:101CE0004FFC0020FEF76BFC0020FEF768FC012093
:101CF000FEF765FC3F20FEF762FC2A20FEF740FC61
:101D00000020FEF75CFC0020FEF759FC0020FEF7E7
:101D100056FCEF20FEF753FC1120FEF731FCA5E046
:101D200040457CD11120FEF72BFC142004F029FF44
:101D3000D020FEF725FC0720FEF741FC4220FEF7ED
:101D40003EFC1D20FEF73BFCD120FEF719FC0020D5
:101D5000FEF735FC1A20FEF732FC0920FEF72FFCB7
:101D6000D220FEF70DFC0120FEF729FC2220FEF711
:101D700026FCC020FEF704FC1020FEF720FC3B20D0
:101D8000FEF71DFC0020FEF71AFC0220FEF717FCF0
:101D90001120FEF714FCC520FEF7F2FB0320FEF72E
:101DA0000EFCC820FEF7ECFB0020FEF708FC252007
:101DB000FEF705FC2120FEF702FC0520FEF7FFFBE5
:101DC0000020FEF7FCFB0A20FEF7F9FB6520FEF77A
:101DD000F6FB2520FEF7F3FB7720FEF7F0FB502003
:101DE000FEF7EDFB0F20FEF7EAFB0020FEF7E7FB16
:101DF000F820FEF7C5FB0120FEF7E1FBFE20FEF711
:101E0000BFFB0020FEF7DBFB0220FEF7D8FB202003
:101E1000FEF7B6FB3620FEF7B3FB082000E02BE010
:101E2000FEF7CDFB3A20FEF7ABFB5520FEF7C7FBD4
:101E30002B20FEF7A5FB0020FEF7C1FB0020FEF7DC
:101E4000BEFB0120FEF7BBFB3F20FEF7B8FB2A20BC
:101E5000FEF796FB0020FEF7B2FB0020FEF7AFFB7B
:101E60000120FEF7ACFBDF20FEF7A9FB782004F091
:101E700088FE292001F0FCBE48457CD1ED20FEF70C
:101E80007FFB0120FEF79BFBFE20FEF798FBEE2078
:101E9000FEF776FBDE20FEF792FB2120FEF78FFB9C
:101EA000F120FEF76DFB0120FEF789FBDF20FEF736
:101EB00067FB1020FEF783FBC420FEF761FB8F2039
:101EC000FEF77DFBC620FEF75BFB0020FEF777FBED
:101ED000E220FEF774FBE220FEF771FBE220FEF742
:101EE0006EFBBF20FEF74CFBAA20FEF768FBB0207C
:101EF000FEF746FB0D20FEF762FB0020FEF75FFBBE
:101F00000D20FEF75CFB0020FEF759FB1120FEF7C9
:101F100056FB0020FEF753FB1920FEF750FB002074
:101F2000FEF74DFB2120FEF74AFB0020FEF747FBA2
:101F30002D20FEF744FB0020FEF741FB3D20FEF77D
:101F40003EFB0020FEF73BFB5D20FEF738FB002048
:101F5000FEF735FB5D20FEF732FB0020FEF72FFB7E
:101F6000B120FEF70DFB8020FEF729FB0020FEF7D5
:101F700026FB8B2000E0FCE3FEF721FB0020FEF7B0
:101F80001EFB9620FEF71BFB0020FEF718FBB2207D
:101F9000FEF7F6FA0020FEF712FB0020FEF70FFB1B
:101FA0000220FEF70CFB0020FEF709FB0320FEF7E2
:101FB00006FB0020FEF703FBB320FEF7E1FA00204A
:101FC000FEF7FDFA0020FEF7FAFA0020FEF7F7FA16
:101FD0000020FEF7F4FA0020FEF7F1FA0020FEF7E9
:101FE000EEFA0020FEF7EBFA0020FEF7E8FA0020F8
:101FF000FEF7E5FA0020FEF7E2FA0020FEF7DFFA2E
:102000000020FEF7DCFA0020FEF7D9FA0020FEF7E8
:10201000D6FA0020FEF7D3FA0020FEF7D0FA00200F
:10202000FEF7CDFA0020FEF7CAFA0020FEF7C7FA45
:102030000020FEF7C4FA0020FEF7C1FA0020FEF7E8
:10204000BEFA0020FEF7BBFA0020FEF7B8FAB42073
:10205000FEF796FA8B20FEF7B2FA0020FEF7AFFAF1
:102060009620FEF7ACFA0020FEF7A9FAA120FEF7B1
:10207000A6FA0020FEF7A3FAB520FEF781FA0220A7
:10208000FEF79DFA0020FEF79AFA0320FEF797FA72
:102090000020FEF794FA0420FEF791FA0020FEF7E4
:1020A0008EFAB620FEF76CFA0020FEF788FA0020C0
:1020B000FEF785FAB720FEF763FA0020FEF77FFAF5
:1020C0000020FEF77CFA3F20FEF779FA0020FEF7A9
:1020D00076FA5E20FEF773FA0020FEF770FA6420AD
:1020E000FEF76DFA0020FEF76AFA8C20FEF767FA19
:1020F0000020FEF764FAAC20FEF761FA0020FEF73C
:102100005EFADC20FEF75BFA0020FEF758FA70203A
:10211000FEF755FA0020FEF752FA9020FEF74FFA2C
:102120000020FEF74CFAEB20FEF749FA0020FEF7FC
:1021300046FADC20FEF743FA0020FEF740FAB8200A
:10214000FEF71EFA0020FEF73AFA0020FEF737FAF3
:102150000020FEF734FA0020FEF731FA0020FEF7E7
:102160002EFA0020FEF72BFA0020FEF728FA0020B6
:10217000FEF725FABA20FEF703FA2420FEF71FFA2D
:102180000020FEF71CFA0020FEF719FA0020FEF7E7
:1021900016FAC120FEF7F4F92020FEF710FA00200D
:1021A000FEF70DFA5420FEF70AFA0020FEF707FAB0
:1021B000FF20FEF704FA0020FEF701FAC220FEF726
:1021C000DFF90A20FEF7FBF90020FEF7F8F90420FA
:1021D000FEF7F5F90020FEF7F2F9C320FEF7D0F97B
:1021E0003C20FEF7ECF90020FEF7E9F93A20FEF773
:1021F000E6F90020FEF7E3F93920FEF7E0F90020C8
:10220000FEF7DDF93720FEF7DAF90020FEF7D7F9FF
:102210003C20FEF7D4F90020FEF7D1F93620FEF776
:10222000CEF90020FEF7CBF93220FEF7C8F90020E6
:10223000FEF7C5F92F20FEF7C2F90020FEF7BFF91F
:102240002C20FEF7BCF90020FEF7B9F92920FEF793
:10225000B6F90020FEF7B3F92620FEF7B0F900200A
:10226000FEF7ADF92420FEF7AAF90020FEF7A7F942
:102270002420FEF7A4F90020FEF7A1F92320FEF7A1
:102280009EF90020FEF79BF93C20FEF798F900200C
:10229000FEF795F93620FEF792F90020FEF78FF948
:1022A0003220FEF78CF90020FEF789F92F20FEF787
:1022B00086F90020FEF783F92C20FEF780F9002034
:1022C000FEF77DF92920FEF77AF90020FEF777F96D
:1022D0002620FEF774F90020FEF771F92420FEF79E
:1022E0006EF90020FEF76BF92420FEF768F9002054
:1022F000FEF765F92320FEF762F90020FEF75FF98B
:10230000C420FEF73DF96220FEF759F90020FEF7E0
:1023100056F90520FEF753F90020FEF750F9842006
:10232000FEF74DF90020FEF74AF9F020FEF747F9D5
:102330000020FEF744F91820FEF741F90020FEF7CF
:102340003EF9A420FEF73BF90020FEF738F91820EB
:10235000FEF735F90020FEF732F95020FEF72FF98D
:102360000020FEF72CF90C20FEF729F90020FEF7DB
:1023700026F91720FEF723F90020FEF720F9952013
:10238000FEF71DF90020FEF71AF9F320FEF717F902
:102390000020FEF714F9E620FEF711F90020FEF701
:1023A0000EF9C520FEF7ECF83220FEF708F9002000
:1023B000FEF705F94420FEF702F90020FEF7FFF8CA
:1023C0006520FEF7FCF80020FEF7F9F87620FEF70E
:1023D000F6F80020FEF7F3F88820FEF7F0F800206A
:1023E000FEF7EDF8C620FEF7CBF82020FEF7E7F861
:1023F0000020FEF7E4F81720FEF7E1F80020FEF7D2
:10240000DEF80120FEF7DBF80020FEF7D8F8C72041
:10241000FEF7B6F80020FEF7D2F80020FEF7CFF85E
:102420000020FEF7CCF80020FEF7C9F8C820FEF720
:10243000A7F80020FEF7C3F80020FEF7C0F8002040
:10244000FEF7BDF80020FEF7BAF8C920FEF798F8AD
:102450000020FEF7B4F80020FEF7B1F80020FEF7E8
:10246000AEF80020FEF7ABF80020FEF7A8F8002039
:10247000FEF7A5F80020FEF7A2F80020FEF79FF86F
:102480000020FEF79CF80020FEF799F80020FEF7E8
:1024900096F80020FEF793F80020FEF790F8002051
:1024A000FEF78DF80020FEF78AF80020FEF787F887
:1024B000E020FEF765F81620FEF781F80020FEF711
:1024C0007EF81C20FEF77BF80020FEF778F821202C
:1024D000FEF775F80020FEF772F83620FEF76FF869
:1024E0000020FEF76CF84620FEF769F80020FEF7A2
:1024F00066F85220FEF763F80020FEF760F86420CB
:10250000FEF75DF80020FEF75AF87A20FEF757F83C
:102510000020FEF754F88B20FEF751F80020FEF75C
:102520004EF89920FEF74BF80020FEF748F8A82057
:10253000FEF745F80020FEF742F8B920FEF73FF815
:102540000020FEF73CF8C420FEF739F80020FEF723
:1025500036F8CA20FEF733F80020FEF730F8D22014
:10256000FEF72DF80020FEF72AF8D920FEF727F80D
:102570000020FEF724F8E020FEF721F80020FEF707
:102580001EF8F320FEF71BF80020FEF718F8E120F4
:10259000FDF7F6FF1620FEF712F80020FEF70FF801
:1025A0001C20FEF70CF80020FEF709F82220FEF7A9
:1025B00006F80020FEF703F83620FEF700F80020AA
:1025C000FDF7FDFF4520FDF7FAFF0020FDF7F7FFBF
:1025D0005220FDF7F4FF0020FDF7F1FF6420FDF726
:1025E000EEFF0020FDF7EBFF7A20FDF7E8FF00206B
:1025F000FDF7E5FF8B20FDF7E2FF0020FDF7DFFF91
:102600009920FDF7DCFF0020FDF7D9FFA820FDF79A
:10261000D6FF0020FDF7D3FFB920FDF7D0FF002043
:10262000FDF7CDFFC420FDF7CAFF0020FDF7C7FF6F
:10263000CA20FDF7C4FF0020FDF7C1FFD220FDF73F
:10264000BEFF0020FDF7BBFFD820FDF7B8FF00203C
:10265000FDF7B5FFE020FDF7B2FF0020FDF7AFFF6B
:10266000F320FDF7ACFF0020FDF7A9FFE220FDF706
:1026700087FF0520FDF7A3FF0020FDF7A0FF0B203B
:10268000FDF79DFF0020FDF79AFF1B20FDF797FF48
:102690000020FDF794FF3420FDF791FF0020FDF7A7
:1026A0008EFF4420FDF78BFF0020FDF788FF4F20B1
:1026B000FDF785FF0020FDF782FF6120FDF77FFF1A
:1026C0000020FDF77CFF7920FDF779FF0020FDF762
:1026D00076FF8820FDF773FF0020FDF770FF97203D
:1026E000FDF76DFF0020FDF76AFFA620FDF767FFED
:1026F0000020FDF764FFB720FDF761FF0020FDF724
:102700005EFFC220FDF75BFF0020FDF758FFC720EA
:10271000FDF755FF0020FDF752FFD120FDF74FFFD9
:102720000020FDF74CFFD620FDF749FF0020FDF704
:1027300046FFDD20FDF743FF0020FDF740FFF320BB
:10274000FDF73DFF0020FDF73AFFE320FDF718FFFE
:102750000520FDF734FF0020FDF731FF0A20FDF7CB
:102760002EFF0020FDF72BFF1C20FDF728FF002087
:1027700000E0FDE2FDF723FF3320FDF720FF0020FE
:10278000FDF71DFF4420FDF71AFF0020FDF717FF9E
:102790005020FDF714FF0020FDF711FF6220FDF728
:1027A0000EFF0020FDF70BFF7820FDF708FF00204B
:1027B000FDF705FF8820FDF702FF0020FDF7FFFE73
:1027C0009720FDF7FCFE0020FDF7F9FEA620FDF79F
:1027D000F6FE0020FDF7F3FEB720FDF7F0FE002027
:1027E000FDF7EDFEC220FDF7EAFE0020FDF7E7FE53
:1027F000C720FDF7E4FE0020FDF7E1FED120FDF744
:10280000DEFE0020FDF7DBFED520FDF7D8FE002020
:10281000FDF7D5FEDD20FDF7D2FE0020FDF7CFFE4F
:10282000F320FDF7CCFE0020FDF7C9FEE420FDF704
:10283000A7FE0120FDF7C3FE0020FDF7C0FE01202A
:10284000FDF7BDFE0020FDF7BAFE0220FDF7B7FE42
:102850000020FDF7B4FE2A20FDF7B1FE0020FDF7B1
:10286000AEFE3C20FDF7ABFE0020FDF7A8FE4B209E
:10287000FDF7A5FE0020FDF7A2FE5D20FDF79FFEFF
:102880000020FDF79CFE7420FDF799FE0020FDF767
:1028900096FE8420FDF793FE0020FDF790FE932026
:1028A000FDF78DFE0020FDF78AFEA220FDF787FED2
:1028B0000020FDF784FEB320FDF781FE0020FDF728
:1028C0007EFEBE20FDF77BFE0020FDF778FEC420D3
:1028D000FDF775FE0020FDF772FECD20FDF76FFEBF
:1028E0000020FDF76CFED320FDF769FE0020FDF708
:1028F00066FEDD20FDF763FE0020FDF760FEF3209D
:10290000FDF75DFE0020FDF75AFEE520FDF738FEDD
:102910000020FDF754FE0020FDF751FE0020FDF7DA
:102920004EFE0020FDF74BFE0220FDF748FE002082
:10293000FDF745FE2920FDF742FE0020FDF73FFE92
:102940003C20FDF73CFE0020FDF739FE4B20FDF753
:1029500036FE0020FDF733FE5D20FDF730FE00203F
:10296000FDF72DFE7420FDF72AFE0020FDF727FE5F
:102970008420FDF724FE0020FDF721FE9320FDF7C3
:102980001EFE0020FDF71BFEA220FDF718FE002012
:10299000FDF715FEB320FDF712FE0020FDF70FFE38
:1029A000BE20FDF70CFE0020FDF709FEC420FDF758
:1029B00006FE0020FDF703FECD20FDF700FE0020FF
:1029C000FDF7FDFDD320FDF7FAFD0020FDF7F7FD33
:1029D000DC20FDF7F4FD0020FDF7F1FDF320FDF70D
:1029E000EEFD0020FDF7EBFDE620FDF7C9FD11200F
:1029F000FDF7E5FD0020FDF7E2FD3420FDF7DFFDEA
:102A00000020FDF7DCFD5620FDF7D9FD0020FDF785
:102A1000D6FD7620FDF7D3FD0020FDF7D0FD772011
:102A2000FDF7CDFD0020FDF7CAFD6620FDF7C7FDCF
:102A30000020FDF7C4FD8820FDF7C1FD0020FDF753
:102A4000BEFD9920FDF7BBFD0020FDF7B8FDBB20C2
:102A5000FDF7B5FD0020FDF7B2FD9920FDF7AFFDB4
:102A60000020FDF7ACFD6620FDF7A9FD0020FDF775
:102A7000A6FD5520FDF7A3FD0020FDF7A0FD552084
:102A8000FDF79DFD0020FDF79AFD4520FDF797FD20
:102A90000020FDF794FD4320FDF791FD0020FDF798
:102AA0008EFD4420FDF78BFD0020FDF788FDE7201B
:102AB000FDF766FD3220FDF782FD0020FDF77FFD6A
:102AC0005520FDF77CFD0020FDF779FD7620FDF710
:102AD00076FD0020FDF773FD6620FDF770FD0020F8
:102AE000FDF76DFD6720FDF76AFD0020FDF767FD2E
:102AF0006720FDF764FD0020FDF761FD8720FDF7ED
:102B00005EFD0020FDF75BFD9920FDF758FD0020DC
:102B1000FDF755FDBB20FDF752FD0020FDF74FFDF1
:102B20009920FDF74CFD0020FDF749FD7720FDF7CA
:102B300046FD0020FDF743FD4420FDF740FD002049
:102B4000FDF73DFD5620FDF73AFD0020FDF737FD6E
:102B50002320FDF734FD0020FDF731FD3320FDF784
:102B60002EFD0020FDF72BFD4520FDF728FD002060
:102B7000FDF725FDE820FDF703FD0020FDF71FFD13
:102B80000020FDF71CFD9920FDF719FD0020FDF741
:102B900016FD8720FDF713FD0020FDF710FD8820AE
:102BA000FDF70DFD0020FDF70AFD7720FDF707FD7D
:102BB0000020FDF704FD6620FDF701FD0020FDF774
:102BC000FEFC8820FDF7FBFC0020FDF7F8FCAA20A6
:102BD000FDF7F5FC0020FDF7F2FCBB20FDF7EFFC54
:102BE0000020FDF7ECFC9920FDF7E9FC0020FDF743
:102BF000E6FC6620FDF7E3FC0020FDF7E0FC552035
:102C0000FDF7DDFC0020FDF7DAFC5520FDF7D7FCD1
:102C10000020FDF7D4FC4420FDF7D1FC0020FDF797
:102C2000CEFC4420FDF7CBFC0020FDF7C8FC55206E
:102C3000FDF7C5FC0020FDF7C2FCE920FDF7A0FC74
:102C4000AA20FDF7BCFC0020FDF7B9FC0020FDF731
:102C5000B6FC0020FDF7B3FC0020FDF791FCAA2094
:102C6000FDF7ADFCCF20FDF78BFC0020FDF7A7FCA6
:102C70000020FDF7A4FC0020FDF7A1FC0020FDF7DB
:102C80009EFC0020FDF79BFC0020FDF798FC002037
:102C9000FDF795FC0020FDF792FC0020FDF78FFC6E
:102CA0000020FDF78CFC0020FDF789FC0020FDF7DB
:102CB00086FC0020FDF783FC0020FDF780FC00204F
:102CC000FDF77DFC0020FDF77AFC0020FDF777FC86
:102CD000F020FDF755FC0020FDF771FC5020FDF7BA
:102CE0006EFC0020FDF76BFC0020FDF768FC002067
:102CF000FDF765FCF320FDF743FC0020FDF75FFCCA
:102D0000F920FDF73DFC0620FDF759FC1020FDF7EA
:102D100056FC2920FDF753FC0020FDF750FC3A201B
:102D2000FDF72EFC5520FDF74AFC1120FDF728FC8D
:102D3000642003F026FF2920FDF722FC3520FDF753
:102D40001FFC0020FDF73BFC5120FDF719FCFF2084
:102D5000FDF735FC5320FDF713FC2C20FDF72FFC6D
:102D60005520FDF70DFC8220FDF729FC2C20FCE30B
:102D7000B8427DD14FF4704455212046FDF778FCD0
:102D8000661CAA213046FDF773FCA71C5221384669
:102D9000FDF76EFC4FF2030808214046FDF768FC82
:102DA0004FF2040901214846FDF762FC0D214FF462
:102DB0003040FDF75DFC0D214BF20100FDF758FCA2
:102DC0000D214BF20200FDF753FC4FF4364A34213B
:102DD0005046FDF74DFC34214BF20160FDF748FCF5
:102DE00034214BF20260FDF743FC4FF4314B0D21CF
:102DF0005846FDF73DFC0D214BF20110FDF738FC64
:102E00000D214BF20210FDF733FC34214FF4374013
:102E1000FDF72EFC34214BF20170FDF729FC342123
:102E20004BF20270FDF724FC00214FF43240FDF715
:102E30001FFC00214BF20120FDF71AFC00214BF290
:102E40000220FDF715FC24214FF43840FDF710FC5B
:102E500024214BF60100FDF70BFC24214BF6020068
:102E6000FDF706FC01214FF43F40FDF701FC00E0B7
:102E7000FEE30F214FF43340FDF7FAFB0F214BF235
:102E80000130FDF7F5FB0F214BF20230FDF7F0FBAF
:102E900034214FF43940FDF7EBFB34214BF60110A0
:102EA000FDF7E6FB34214BF60210FDF7E1FB0821AC
:102EB0004FF43540FDF7DCFB08214BF20150FDF7E4
:102EC000D7FB08214BF20250FDF7D2FB03214FF450
:102ED0004240FDF7CDFB24214FF43A40FDF7C8FBFB
:102EE00024214BF60120FDF7C3FB24214BF60220E1
:102EF000FDF7BEFB00214FF43C40FDF7B9FB782104
:102F00004BF60140FDF7B4FB00214BF60240FDF704
:102F1000AFFB00214FF43D40FDF7AAFB78214BF6B3
:102F20000150FDF7A5FB00214BF60250FDF7A0FB79
:102F300000214FF43E40FDF79BFB64214BF60160FE
:102F4000FDF796FB00214FF45140FDF791FB332133
:102F50004DF20110FDF78CFB00214DF20210FDF740
:102F600087FB34214DF20310FDF782FB00214DF267
:102F70000410FDF77DFB3A214DF20510FDF778FBBB
:102F800000214DF20610FDF773FB4A214DF20710A8
:102F9000FDF76EFB00214DF20810FDF769FB5C2187
:102FA0004DF20910FDF764FB00214DF20A10FDF708
:102FB0005FFB81214DF20B10FDF75AFB00214DF212
:102FC0000C10FDF755FBA6214DF20D10FDF750FB3F
:102FD00000214DF20E10FDF74BFBE5214DF20F10D5
:102FE000FDF746FB01214DF21010FDF741FB1321C7
:102FF0004DF21110FDF73CFB01214DF21210FDF7CF
:1030000037FB54214DF21310FDF732FB01214DF235
:103010001410FDF72DFB82214DF21510FDF728FB52
:1030200001214DF21610FDF723FBCA214DF21710B6
:10303000FDF71EFB02214DF21810FDF719FB0021D0
:103040004DF21910FDF714FB02214DF21A10FDF795
:103050000FFB01214DF21B10FDF70AFB02214DF27F
:103060001C10FDF705FB34214DF21D10FDF700FB90
:1030700002214DF21E10FDF7FBFA67214DF21F10E1
:10308000FDF7F6FA02214DF22010FDF7F1FA842146
:103090004DF22110FDF7ECFA02214DF22210FDF75E
:1030A000E7FAA4214DF22310FDF7E2FA02214DF2D6
:1030B0002410FDF7DDFAB7214DF22510FDF7D8FAFF
:1030C00002214DF22610FDF7D3FACF214DF2271041
:1030D000FDF7CEFA02214DF22810FDF7C9FADE21E4
:1030E0004DF22910FDF7C4FA02214DF22A10FDF726
:1030F000BFFAF2214DF22B10FDF7BAFA02214DF280
:103100002C10FDF7B5FAFE214DF22D10FDF7B0FAA7
:1031100003214DF22E10FDF7ABFA10214DF22F10C6
:10312000FDF7A6FA03214DF23010FDF7A1FA332185
:103130004DF23110FDF79CFA03214DF23210FDF7EC
:1031400097FA6D214DF23310FDF792FA00214FF4FA
:103150005240FDF78DFA33214DF20120FDF788FA38
:1031600000214DF20220FDF783FA34214DF20320B5
:10317000FDF77EFA00214DF20420FDF779FA3A219D
:103180004DF20520FDF774FA00214DF20620FDF7FF
:103190006FFA4A214DF20720FDF76AFA00214DF23D
:1031A0000820FDF765FA5C214DF20920FDF760FA71
:1031B00000214DF20A20FDF75BFA81214DF20B2030
:1031C000FDF756FA00214DF20C20FDF751FAA62129
:1031D0004DF20D20FDF74CFA00214DF20E20FDF7C7
:1031E00047FAE5214DF20F20FDF742FA01214DF299
:1031F0001020FDF73DFA13214DF21120FDF738FAAA
:1032000001214DF21220FDF733FA54214DF2132023
:10321000FDF72EFA01214DF21420FDF729FA822143
:103220004DF21520FDF724FA01214DF21620FDF78D
:103230001FFACA214DF21720FDF71AFA02214DF2AA
:103240001820FDF715FA00214DF21920FDF710FAAC
:1032500002214DF21A20FDF70BFA01214DF21B203D
:10326000FDF706FA02214DF21C20FDF701FA342188
:103270004DF21D20FDF7FCF902214DF21E20FDF755
:10328000F7F967214DF21F20FDF7F2F902214DF207
:103290002020FDF7EDF984214DF22120FDF7E8F91A
:1032A00002214DF22220FDF7E3F9A4214DF2232063
:1032B000FDF7DEF902214DF22420FDF7D9F9B721FF
:1032C0004DF22520FDF7D4F902214DF22620FDF71D
:1032D000CFF9CF214DF22720FDF7CAF902214DF297
:1032E0002820FDF7C5F9DE214DF22920FDF7C0F9B0
:1032F00002214DF22A20FDF7BBF9F2214DF22B20DD
:10330000FDF7B6F902214DF22C20FDF7B1F9FE21AF
:103310004DF22D20FDF7ACF903214DF22E20FDF7E3
:10332000A7F910214DF22F20FDF7A2F903214DF24C
:103330003020FDF79DF933214DF23120FDF798F94A
:1033400003214DF23220FDF793F96D214DF2332028
:10335000FDF78EF900214FF45340FDF789F9332131
:103360004DF20130FDF784F900214DF20230FDF7F6
:103370007FF934214DF20330FDF77AF900214DF247
:103380000430FDF775F93A214DF20530FDF770F97B
:1033900000214DF20630FDF76BF94A214DF207305E
:1033A000FDF766F900214DF20830FDF761F95C2167
:1033B0004DF20930FDF75CF900214DF20A30FDF7BE
:1033C00057F981214DF20B30FDF752F900214DF2F2
:1033D0000C30FDF74DF9A6214DF20D30FDF748F9FF
:1033E00000214DF20E30FDF743F9E5214DF20F308B
:1033F000FDF73EF901214DF21030FDF739F91321A7
:103400004DF21130FDF734F901214DF21230FDF784
:103410002FF954214DF21330FDF72AF901214DF215
:103420001430FDF725F982214DF21530FDF720F912
:1034300001214DF21630FDF71BF9CA214DF217306C
:10344000FDF716F902214DF21830FDF711F90021B0
:103450004DF21930FDF70CF902214DF21A30FDF74B
:1034600007F901214DF21B30FDF702F902214DF25F
:103470001C30FDF7FDF834214DF21D30FDF7F8F852
:1034800002214DF21E30FDF7F3F867214DF21F3097
:10349000FDF7EEF802214DF22030FDF7E9F8842126
:1034A0004DF22130FDF7E4F802214DF22230FDF714
:1034B000DFF8A4214DF22330FDF7DAF802214DF2B6
:1034C0002430FDF7D5F8B7214DF22530FDF7D0F8BF
:1034D00002214DF22630FDF7CBF8CF214DF22730F7
:1034E000FDF7C6F802214DF22830FDF7C1F8DE21C4
:1034F0004DF22930FDF7BCF802214DF22A30FDF7DC
:10350000B7F8F2214DF22B30FDF7B2F802214DF25F
:103510002C30FDF7ADF8FE214DF22D30FDF7A8F867
:1035200003214DF22E30FDF7A3F810214DF22F307C
:10353000FDF79EF803214DF23030FDF799F8332165
:103540004DF23130FDF794F803214DF23230FDF7A2
:103550008FF86D214DF23330FDF78AF800214FF4DA
:103560005440FDF785F8332100E081E34DF201403E
:10357000FDF77EF800214DF20240FDF779F8342185
:103580004DF20340FDF774F800214DF20440FDF7C1
:103590006FF83A214DF20540FDF76AF800214DF22F
:1035A0000640FDF765F84A214DF20740FDF760F847
:1035B00000214DF20840FDF75BF85C214DF2094017
:1035C000FDF756F800214DF20A40FDF751F8812130
:1035D0004DF20B40FDF74CF800214DF20C40FDF789
:1035E00047F8A6214DF20D40FDF742F800214DF2BB
:1035F0000E40FDF73DF8E5214DF20F40FDF738F89C
:1036000001214DF21040FDF733F813214DF2114026
:10361000FDF72EF801214DF21240FDF729F8542153
:103620004DF21340FDF724F801214DF21440FDF74F
:103630001FF882214DF21540FDF71AF801214DF2D5
:103640001640FDF715F8CA214DF21740FDF710F8A6
:1036500002214DF21840FDF70BF800214DF2194000
:10366000FDF706F802214DF21A40FDF701F800E0DF
:1036700001E301214DF21B40FCF7FAFF02214DF25C
:103680001C40FCF7F5FF34214DF21D40FCF7F0FF24
:1036900002214DF21E40FCF7EBFF67214DF21F4067
:1036A000FCF7E6FF02214DF22040FCF7E1FF842108
:1036B0004DF22140FCF7DCFF02214DF22240FCF7E5
:1036C000D7FFA4214DF22340FCF7D2FF02214DF297
:1036D0002440FCF7CDFFB7214DF22540FCF7C8FF91
:1036E00002214DF22640FCF7C3FFCF214DF22740C7
:1036F000FCF7BEFF02214DF22840FCF7B9FFDE21A6
:103700004DF22940FCF7B4FF02214DF22A40FCF7AC
:10371000AFFFF2214DF22B40FCF7AAFF02214DF240
:103720002C40FCF7A5FFFE214DF22D40FCF7A0FF39
:1037300003214DF22E40FCF79BFF10214DF22F404C
:10374000FCF796FF03214DF23040FCF791FF332147
:103750004DF23140FCF78CFF03214DF23240FCF773
:1037600087FF6D214DF23340FCF782FF00214FF4BB
:103770005540FCF77DFF33214DF20150FCF778FFF7
:1037800000214DF20250FCF773FF34214DF203503B
:10379000FCF76EFF00214DF20450FCF769FF3A215F
:1037A0004DF20550FCF764FF00214DF20650FCF786
:1037B0005FFF4A214DF20750FCF75AFF00214DF2FE
:1037C0000850FCF755FF5C214DF20950FCF750FF03
:1037D00000214DF20A50FCF74BFF81214DF20B50B6
:1037E000FCF746FF00214DF20C50FCF741FFA621EB
:1037F0004DF20D50FCF73CFF00214DF20E50FCF74E
:1038000037FFE5214DF20F50FCF732FF01214DF259
:103810001050FCF72DFF13214DF21150FCF728FF3B
:1038200001214DF21250FCF723FF54214DF21350A9
:10383000FCF71EFF01214DF21450FCF719FF822105
:103840004DF21550FCF714FF01214DF21650FCF714
:103850000FFFCA214DF21750FCF70AFF02214DF26B
:103860001850FCF705FF00214DF21950FCF700FF3E
:1038700002214DF21A50FCF7FBFE01214DF21B50C4
:10388000FCF7F6FE02214DF21C50FCF7F1FE34214C
:103890004DF21D50FCF7ECFE02214DF21E50FCF7DC
:1038A000E7FE67214DF21F50FCF7E2FE02214DF2C8
:1038B0002050FCF7DDFE84214DF22150FCF7D8FEAC
:1038C00002214DF22250FCF7D3FEA4214DF22350E9
:1038D000FCF7CEFE02214DF22450FCF7C9FEB721C1
:1038E0004DF22550FCF7C4FE02214DF22650FCF7A4
:1038F000BFFECF214DF22750FCF7BAFE02214DF258
:103900002850FCF7B5FEDE214DF22950FCF7B0FE41
:1039100002214DF22A50FCF7ABFEF2214DF22B5062
:10392000FCF7A6FE02214DF22C50FCF7A1FEFE2171
:103930004DF22D50FCF79CFE03214DF22E50FCF76A
:1039400097FE10214DF22F50FCF792FE03214DF20D
:103950003050FCF78DFE33214DF23150FCF788FEDC
:1039600003214DF23250FCF783FE6D214DF23350AE
:10397000FCF77EFE00214FF45640FCF779FE332120
:103980004DF20160FCF774FE00214DF20260FCF77D
:103990006FFE34214DF20360FCF76AFE00214DF208
:1039A0000460FCF765FE3A214DF20560FCF760FE0D
:1039B00000214DF20660FCF75BFE4A214DF20760E4
:1039C000FCF756FE00214DF20860FCF751FE5C2129
:1039D0004DF20960FCF74CFE00214DF20A60FCF745
:1039E00047FE81214DF20B60FCF742FE00214DF2B3
:1039F0000C60FCF73DFEA6214DF20D60FCF738FE91
:103A000000214DF20E60FCF733FEE5214DF20F6010
:103A1000FCF72EFE01214DF21060FCF729FE132168
:103A20004DF21160FCF724FE01214DF21260FCF70B
:103A30001FFE54214DF21360FCF71AFE01214DF2D6
:103A40001460FCF715FE82214DF21560FCF710FEA4
:103A500001214DF21660FCF70BFECA214DF21760F2
:103A6000FCF706FE02214DF21860FCF701FE002172
:103A70004DF21960FCF7FCFD02214DF21A60FCF7D3
:103A8000F7FD01214DF21B60FCF7F2FD02214DF222
:103A90001C60FCF7EDFD34214DF21D60FCF7E8FDE4
:103AA00002214DF21E60FCF7E3FD67214DF21F601D
:103AB000FCF7DEFD02214DF22060FCF7D9FD8421E8
:103AC0004DF22160FCF7D4FD02214DF22260FCF79B
:103AD000CFFDA4214DF22360FCF7CAFD02214DF277
:103AE0002460FCF7C5FDB7214DF22560FCF7C0FD51
:103AF00002214DF22660FCF7BBFDCF214DF227607D
:103B0000FCF7B6FD02214DF22860FCF7B1FDDE2185
:103B10004DF22960FCF7ACFD02214DF22A60FCF762
:103B2000A7FDF2214DF22B60FCF7A2FD02214DF220
:103B30002C60FCF79DFDFE214DF22D60FCF798FDF9
:103B400003214DF22E60FCF793FD10214DF22F6002
:103B5000FCF78EFD03214DF23060FCF789FD332127
:103B60004DF23160FCF784FD03214DF23260FCF729
:103B70007FFD6D214DF23360FCF77AFD5521204623
:103B8000FCF776FDAA213046FCF772FD522138463B
:103B9000FCF76EFD08214046FCF76AFD002148460F
:103BA000FCF766FDCC215846FCF762FD00214BF284
:103BB0000110FCF75DFD05215046FCF759FD702111
:103BC0004FF43740FCF754FD70214BF20170FCF7C5
:103BD0004FFD01214FF43840FCF74AFD03214BF61D
:103BE0000100FCF745FD03214BF60200FCF740FD08
:103BF00003214BF60300FCF73BFD02214FF43C4050
:103C0000FCF736FD00214BF60140FCF731FD0021A9
:103C10004BF60240FCF72CFDD0214FF44940FCF755
:103C200027FD02214CF60110FCF722FD50214CF635
:103C30000210FCF71DFD50214CF60310FCF718FD97
:103C400050214CF60410FCF713FD00214FF45450A2
:103C5000FCF70EFD55214FF46850FCF709FD4FF4B9
:103C60008850FCF78DFC782002F074FF4FF424504C
:103C7000FCF786FCFEE3A0F513414FF480744FF48B
:103C8000E06840F2022940F23F164FF4274B2539F5
:103C900024D04FF4017A40F20777C91E7ED04FF44A
:103CA0001C5B08317BD011397AD0A0F5A8410839C6
:103CB00077D0A0F5A851053974D0B1F5204172D064
:103CC000B1F5805170D0A0F5094189396DD0A0F5CA
:103CD0008A4131396AD0091F69D0CBE747F6F00134
:103CE000E520FCF7C5FC21460120FCF7C1FC41465C
:103CF0000220FCF7BDFC41F230010320FCF7B8FCC8
:103D000000210420FCF7B4FC49460820FCF7B0FC75
:103D100000210920FCF7ACFC00210A20FCF7A8FCDC
:103D200000210C20FCF7A4FC00210D20FCF7A0FCD6
:103D300000210F20FCF79CFC00211020FCF798FCD0
:103D400007211120FCF794FC00211220FCF790FCC5
:103D500000211320FCF78CFC00210720FCF788FCD5
:103D600041F290611020FCF783FC40F227211120E2
:103D7000FCF77EFC9D211220FCF77AFC4FF4C85121
:103D80001320FCF775FC25212920FCF771FC0D217F
:103D90002B20FCF76DFC0721302009E074E01DE1C9
:103DA000C1E193E22EE3FDE3FDE3FDE3FDE3FDE38B
:103DB000FCF75EFC40F203313120FCF759FC032193
:103DC0003220FCF755FC40F206213520FCF750FC70
:103DD00008213620FCF74CFC40F206413720FCF766
:103DE00047FC4FF441713820FCF742FC0721392091
:103DF000FCF73EFC40F202613C20FCF739FC082154
:103E00003D20FCF735FC00215020FCF731FCEF2170
:103E10005120FCF72DFC00215220FCF729FC3146F3
:103E20005320FCF725FC59466020FCF721FC0121BA
:103E30006120FCF71DFC00216A20FCF719FC002121
:103E40008020FCF715FC00218120FCF711FC0021EB
:103E50008220FCF70DFC00218320FCF709FC0021E7
:103E60008420FCF705FC00218520FCF701FC1021D3
:103E70009020FCF7FDFB4FF4C0619220FCF7F8FBAB
:103E800040F233110720FCE341F28F01EC20FCF7F4
:103E9000EFFB41F23421EF20FCF7EAFB2146012041
:103EA000FCF7E6FB41460220FCF7E2FB41F2300161
:103EB0000320FCF7DDFB00210420FCF7D9FB494679
:103EC0000820FCF7D5FB00210920FCF7D1FB0021DD
:103ED0000A20FCF7CDFB01210C20FCF7C9FB0021D7
:103EE0000D20FCF7C5FB00210F20FCF7C1FB0021D2
:103EF0001020FCF7BDFB07211120FCF7B9FB0021C6
:103F00001220FCF7B5FB00211320FCF7B1FB0121C7
:103F10000720FCF7ADFB322002F033FE41F2904166
:103F20001020FCF7A5FB40F227211120FCF7A0FB95
:103F3000322002F026FE8A211220FCF799FB322063
:103F400002F01FFE4FF4D0511320FCF791FB062125
:103F50002920FCF78DFB0D212B20FCF789FB32205B
:103F600002F00FFE00212020FCF782FB002121201F
:103F7000FCF77EFB322002F004FE00213020FCF72B
:103F800077FB40F204613120FCF772FB40F205310F
:103F90003220FCF76DFB00213520FCF769FB40F671
:103FA00009413620FCF764FB51463720FCF760FBE3
:103FB00040F201313820FCF75BFB39463920FCF731
:103FC00057FB00213C20FCF753FB40F60A213D2023
:103FD000FCF74EFB322002F0D4FD3BE10021084605
:103FE000FCF746FB21460120FCF742FB414602203C
:103FF000FCF73EFB41F230010320FCF739FB0021C6
:104000000420FCF735FB49460820FCF731FB002172
:104010000920FCF72DFB00210A20FCF729FB0121D8
:104020000C20FCF725FB00210D20FCF721FB0021D3
:104030000F20FCF71DFB322002F0A3FD40F201111E
:104040000720FCF715FB322002F09BFD4FF4865150
:104050001020FCF70DFB07211120FCF709FB4FF4A2
:10406000887421461220FCF703FB4FF430611320C3
:10407000FCF7FEFA00212920FCF7FAFA44F21001BD
:104080002B20FCF7F5FA00215020FCF7F1FAEF2184
:104090005120FCF7EDFA00215220FCF7E9FA3146F5
:1040A0005320FCF7E5FA59466020FCF7E1FA0121BC
:1040B0006120FCF7DDFA00216A20FCF7D9FA002123
:1040C0008020FCF7D5FA00218120FCF7D1FA0021ED
:1040D0008220FCF7CDFA00218320FCF7C9FA0021E9
:1040E0008420FCF7C5FA00218520FCF7C1FA1021D5
:1040F0009020FCF7BDFA00219220FCF7B9FA0121CB
:104100009320FCF7B5FA21469520FCF7B1FA00217F
:104110009720FCF7ADFA00219820FCF7A9FA40F2AD
:10412000731107207DE341F21401E720FCF7A0FAA8
:1041300021460120FCF79CFA4FF400710220FCF7A5
:1041400097FA41F238010320FCF792FA4946082019
:10415000FCF78EFA00210920FCF78AFA00210A20D8
:10416000FCF786FA00210C20FCF782FA00210D20D2
:10417000FCF77EFA00210F20FCF77AFA00211020CC
:10418000FCF776FA07211120FCF772FA00211220C1
:10419000FCF76EFA00211320FCF76AFAC82002F03F
:1041A000F0FC41F290611020FCF762FA40F2272106
:1041B0001120FCF75DFA322002F0E3FC0C21122002
:1041C000FCF756FA322002F0DCFC4FF400611320B9
:1041D000FCF74EFA11212920FCF74AFA0B212B207B
:1041E000FCF746FA322002F0CCFC00212020FCF73C
:1041F0003FFA31462120FCF73BFA00213020FCF742
:1042000037FA4FF4837421463120FCF731FA00214C
:104210003220FCF72DFA51463520FCF729FA41F2FD
:104220000A613620FCF724FA39463720FCF720FAD9
:1042300021463820FCF71CFA39463920FCF718FAD9
:1042400040F202413C20FCF713FA40F60F413D20BA
:10425000FCF70EFA00215020FCF70AFAEF2151205A
:10426000FCF706FA00215220FCF702FA31465320EF
:10427000FCF7FEF959466020FCF7FAF901216120AC
:10428000FCF7F6F900216A20FCF7F2F90021802002
:10429000FCF7EEF900218120FCF7EAF900218220E9
:1042A000FCF7E6F900218320FCF7E2F900218420E5
:1042B000FCF7DEF900218520FCF7DAF910219020C7
:1042C000FCF7D6F94FF4C0619220FDE321460120AE
:1042D000FCF7CEF941460220FCF7CAF941F2300161
:1042E0000320FCF7C5F900210420FCF7C1F940F2D6
:1042F00007210820FCF7BCF900210920FCF7B8F9D8
:1043000000210A20FCF7B4F900210C20FCF7B0F9D9
:1043100000210D20FCF7ACF900210F20FCF7A8F9D3
:10432000142002F02EFC41F2B0611020FCF7A0F93D
:1043300001211120FCF79CF901211720FCF798F9C5
:104340004FF49C711220FCF793F94FF40061132095
:10435000FCF78EF909212920FCF78AF909212A2086
:10436000FCF786F90021A420FCF782F900215020F7
:10437000FCF77EF9EF215120FCF77AF90021522059
:10438000FCF776F931465320FCF772F95946602064
:10439000FCF76EF901216120FCF76AF900216A201F
:1043A000FCF766F900218020FCF762F900218120EA
:1043B000FCF75EF900218220FCF75AF900218320E6
:1043C000FCF756F900218420FCF752F900218520E2
:1043D000FCF74EF913219020FCF74AF900219220B6
:1043E000FCF746F903219320FCF742F94FF488715A
:1043F0009520FCF73DF940F273110720FCF738F9DE
:10440000322010E100210720FCF732F9322002F0BF
:10441000B8FB4FF48E711220FCF72AF90121A42079
:10442000FCF726F90F210820FCF722F908210A20C1
:10443000FCF71EF908210D20FCF71AF9BA46394697
:104440003020FCF715F907213120FCF711F940F273
:1044500003613220FCF70CF9474641463320FCF754
:1044600007F949463420FCF703F902213520FCF70F
:10447000FFF800E0FDE341F60F713620FCF7F8F895
:1044800051463720FCF7F4F800213820FCF7F0F80B
:1044900000213920FCF7ECF851463A20FCF7E8F807
:1044A00000213B20FCF7E4F807213C20FCF7E0F872
:1044B00000213D20FCF7DCF8322002F062FB0121F4
:1044C0000720FCF7D5F801211720FCF7D1F832209E
:1044D00002F057FB4FF4BD511020FCF7C9F840F231
:1044E00017211120FCF7C4F84FF48F711220FCF74C
:1044F000BFF84FF470611320FCF7BAF800212A20AE
:10450000FCF7B6F80A212920FCF7B2F84FF49F71A6
:104510001220FCF7ADF800215020FCF7A9F8EF219C
:104520005120FCF7A5F800215220FCF7A1F83146F4
:104530005320FCF79DF859466020FCF799F80121BB
:104540006120FCF795F800216A20FCF791F8002122
:104550008020FCF78DF800218120FCF789F80021EC
:104560008220FCF785F800218320FCF781F80021E8
:104570008420FCF77DF800218520FCF779F81321D1
:104580009020FCF775F84FF440719220FCF770F81A
:1045900005219320FCF76CF800219520FCF768F8C2
:1045A000002104E042E03DE105E2B8E279E3972032
:1045B000FCF75EF800219820FCF75AF8214601200C
:1045C000FCF756F839460220FCF752F841F2380160
:1045D0000320FCF74DF800210420FCF749F80021E6
:1045E0000C20FCF745F800210F20FCF741F80021D2
:1045F0002020FCF73DF800212120FCF739F821218B
:104600000720FCF735F8142002F0BBFA61210720DF
:10461000FCF72EF8142002F0B4FA40F273110720D0
:10462000FCF726F8142002F0ACFA2EE3002108462D
:10463000FCF71EF800210846FCF71AF8002108468E
:10464000FCF716F800210846FCF712F80121A42017
:10465000FCF70EF8142002F094FA59466020FCF79B
:1046600007F84F4649460820FCF702F84FF4057159
:104670003020FBF7FDFF43F215713120FBF7F8FF07
:1046800000E0CAE040F204613220FBF7F1FF40F69F
:1046900016613320FBF7ECFF42F211213420FBF7C7
:1046A000E7FF4FF4A8513520FBF7E2FF48F207512E
:1046B0003620FBF7DDFF41F207413720FBF7D8FF3B
:1046C00041F203413820FBF7D3FF20213920FBF7CB
:1046D000CFFF1A219020FBF7CBFF00211020FBF722
:1046E000C7FF07211120FBF7C3FF00211220FBF7B2
:1046F000BFFF00211320FBF7BBFF142002F041FA9B
:104700004FF4E6611020FBF7B3FF40F237111120A0
:10471000FBF7AEFF142002F034FA4FF4DC711220E4
:10472000FBF7A6FF142002F02CFA4FF4706113205F
:10473000FBF79EFF80212A20FBF79AFF48212920C2
:10474000FBF796FF142002F01CFA21460120FBF72C
:104750008FFF41460220FBF78BFF41F23801032017
:10476000FBF786FF39460820FBF782FF00210A206D
:10477000FBF77EFF00210C20FBF77AFF00210D20C4
:10478000FBF776FF30210E20FBF772FF002150204F
:10479000FBF76EFFEF215120FBF76AFF002152204B
:1047A000FBF766FF31465320FBF762FF5946602056
:1047B000FBF75EFF01216120FBF75AFF00216A2011
:1047C000FBF756FF11219020FBF752FF4FF4C06119
:1047D0009220FBF74DFF40F202419320FBF748FF88
:1047E00002219420FBF744FF142002F0CAF90121B2
:1047F0000720FBF73DFF142002F0C3F961210720D9
:10480000FBF736FF40F273110720FBF731FF002161
:104810002020FBF72DFF00212120FBF729FF22217B
:10482000002030E200210846FBF722FF0021084665
:10483000FBF71EFF142002F0A4F900210846FBF745
:1048400017FF00210846FBF713FF00210846FBF77E
:104850000FFF00210846FBF70BFF0121A420FBF707
:1048600007FF142002F08DF959466020FBF700FF86
:1048700040F606010820FBF7FBFE40F203784146B4
:104880003020FBF7F5FE01213120FBF7F1FE04217A
:104890003220FBF7EDFE4FF481713320FBF7E8FE89
:1048A0004FF4407739463420FBF7E2FE40F2031123
:1048B0003520FBF7DDFE1F213620FBF7D9FE4146F0
:1048C0003720FBF7D5FE01213820FBF7D1FE04216C
:1048D0003920FBF7CDFE15219020FBF7C9FE4FF4E0
:1048E00082611020FBF7C4FE40F247211120FBF744
:1048F000BFFE4FF4DE711220FBF7BAFE4FF4606189
:104900001320FBF7B5FE782002F03BF92146012089
:10491000FBF7AEFE4FF400710220FBF7A9FE41F257
:1049200030010320FBF7A4FE08210A20FBF7A0FEBC
:1049300000210C20FBF79CFE20210E20FBF798FEA7
:1049400000210F20FBF794FE00212020FBF790FEB2
:1049500000212120FBF78CFE3D212A20FBF788FE59
:10496000142002F00EF92D212920FBF781FE0021F1
:104970005020FBF77DFE4DF2EF015120FBF778FE52
:1049800000215220FBF774FE31465320FBF770FEE6
:1049900000216120FBF76CFE00216A20FBF768FE16
:1049A00039469220FBF764FE05219320FBF760FE59
:1049B0002146FFF7B6BB01210020FBF759FE4AF65E
:1049C000A4010320FBF754FE00210C20FBF750FE4E
:1049D00040F60C010D20FBF74BFE4FF42C510E203E
:1049E000FBF746FEB0211E20FBF742FE42F63F31A8
:1049F0000120FBF73DFE4FF4C0610220FBF738FEBB
:104A000000211020FBF734FE46F278011120FBF75D
:104A10002FFE00210520FBF72BFE00210620FBF7CF
:104A200027FE4EF61C711620FBF722FE03211720ED
:104A3000FBF71EFE40F233210720FBF719FE002191
:104A40000B20FBF715FE00210F20FBF711FE0021C4
:104A50004120FBF70DFE00214220FBF709FE00215B
:104A60004820FBF705FE31464920FBF701FE0021F7
:104A70004A20FBF7FDFD00214B20FBF7F9FD4FF429
:104A80006F414420FBF7F4FD00214520FBF7F0FDCA
:104A900031464620FBF7ECFD39463020FBF7E8FDB8
:104AA000544651463120FBF7E3FD21463220FBF707
:104AB000DFFD40F2025631463320FBF7D9FD711D70
:104AC0003420FBF7D5FD00E08EE121463520FBF7D1
:104AD000CFFD21463620FBF7CBFD31463720FBF7D3
:104AE000C7FD40F2023421463A20FBF7C1FD2146C2
:104AF0003B20FBF7BDFD00212320FBF7B9FD002182
:104B00002420FBF7B5FD4FF400412520FBF7B0FD55
:104B100000214F20FBF7ACFD00214E20B3E0012126
:104B20000020FBF7A5FD0A2002F02BF841F22861D6
:104B30001020FBF79DFD0E211220FBF799FD40F69A
:104B400039211320FBF794FD0A2002F01AF84021C6
:104B50001120FBF78DFD50211520FBF789FD0A2060
:104B600002F00FF81E211220FBF782FD0A2002F04E
:104B700008F84FF4B1511020FBF77AFD42F63921C5
:104B80001320FBF775FD0A2001F0FBFF21460120F1
:104B9000FBF76EFD4FF440710220FBF769FD41F217
:104BA00038010320FBF764FD49460820FBF760FD50
:104BB00008210A20FBF75CFD00213020FBF758FD9F
:104BC00040F202413120FBF753FD4FF48371322054
:104BD000FBF74EFD40F203513320FBF749FD4FF444
:104BE00082713420FBF744FD40F201313520FBF7A0
:104BF0003FFD39463620FBF73BFD40F205313720BB
:104C0000FBF736FD4FF402713820FBF731FD40F61B
:104C10000B713920FBF72CFD02214120FBF728FD09
:104C200059466020FBF724FD01216120FBF720FDA0
:104C30004FF404719020FBF71BFD4FF48571922017
:104C4000FBF716FD04219320FBF712FD2146A0205F
:104C5000FBF70EFD01210720FBF70AFD21210720AC
:104C6000FBF706FD23210720FBF702FD3321072078
:104C700000E00AE0FBF7FCFC40F233110720FBF7F1
:104C8000F7FC0021A020FBF7F3FC0120FCF74DFB13
:104C9000FE490120C1F8A8012846FCF72DFEBDE819
:104CA000F88F30211520FBF7E3FC10219A20FBF749
:104CB000DFFC20211120FBF7DBFC43F22841102010
:104CC000FBF7D6FC02211220FBF7D2FC41F238019F
:104CD0001320FBF7CDFC282001F053FF12210846DA
:104CE000FBF7C6FC282001F04CFF43F220411020C6
:104CF000FBF7BEFC43F238011320FBF7B9FC46205A
:104D000001F03FFF00213020FBF7B2FC40F20241EE
:104D10003120FBF7ADFC40F207313220FBF7A8FC55
:104D20004FF441713320FBF7A3FC04213420FBF73F
:104D30009FFC40F201413520FBF79AFC39463620B2
:104D4000FBF796FC40F205313720FBF791FC4FF45E
:104D5000C26631463820FBF78BFC31463920FBF721
:104D600087FC21460120FBF783FC4FF440710220B1
:104D7000FBF77EFC41F230010320FBF779FC40F6A3
:104D800008010820FBF774FC08210A20FBF770FCDF
:104D900059466020FBF76CFC01216120FBF768FCA1
:104DA0004FF49F719020FBF763FC21469220FBF7A4
:104DB0005FFC21469320FBF75BFC4FF44051A020A1
:104DC000FBF756FC1021A320FBF752FC0121072022
:104DD000FBF74EFC21210720FBF74AFC232107208B
:104DE000FBF746FC33210720FBF742FC40F233116E
:104DF000DFE52DE9F84FA64C99468246A388A3F536
:104E0000D040043802D1A07901280AD0A2EB0A00D0
:104E1000401CA04E1FFA80F80D464FF4807B77159A
:104E20003EE023880846991A0025A5712A25658148
:104E30002B26A3EB0A03A681491E5B1E0A9F89B29B
:104E40004A469BB20097FFF7D4FF0120A07166810C
:104E5000A58124E729465046FBF75CFCFBF72FFCB5
:104E6000002419E05946304602F067FA39463046C8
:104E700002F065FA88480A9902F068FA8021304603
:104E800002F05DFA8021304602F057FA394630468A
:104E900002F053FA641CA4B24445E3D36D1CADB2D6
:104EA0004D45D7D9FBE62DE9FF5F89460098DDF82F
:104EB00038B0101A401C86B2A3EB0900401C1FFA40
:104EC00080FA00252EE009EB050081B20098FBF77F
:104ED00021FCFBF7F4FB00246E4F4FF400781DE03B
:104EE0004FF48071384602F028FA4146384602F005
:104EF00026FA05FB064168483BF8111002F026FA35
:104F00008021384602F01BFA8021384602F015FA5B
:104F10004146384602F011FA641CA4B2B442DFD311
:104F20006D1CADB25545CED3BDE8FF9F2DE9FE4FB8
:104F30000026A2EB000882465F1A701E354689469D
:104F4000B8F1000F02DD4FF0010102E003D14FF094
:104F50000001019102E0C8F100080190002F02DD7C
:104F60004FF0010002E003D14FF00000009002E09A
:104F7000C7F1000700904046B84501DD044600E057
:104F80003C46601C4FF0000B029015E01FFA89F1BF
:104F90001FFA8AF0FCF76CF846443D44A64202DD55
:104FA0000199361B8A44A54202DD00992D1B8944D4
:104FB0000BF101001FFA80FB02998B45E6DDBDE88D
:104FC000FE8F2DE9F0411C4615460E4607460B465E
:104FD000FFF7ACFF3A46234631461046FFF7A6FFDF
:104FE00023462A4619463846FFF7A0FF2A4623469D
:104FF0003146BDE8F041104698E72DE9FC5F804658
:105000000024154603200F46A0EB450661E0A7EB00
:105010000409A8EB050A1FFA89F11FFA8AF0FCF7C8
:1050200027F808EB050001901FFA89F180B2FCF720
:105030001FF8781981B2A8EB040B00901FFA8BF0CF
:10504000FCF716F81FFA89F11FFA8AF0FCF710F83E
:10505000A7EB05091FFA89F11FFA8BF0FCF708F896
:10506000019807EB040B1FFA8BF180B2FCF700F8F4
:105070001FFA89F108EB04091FFA89F0FBF7F8FF22
:10508000009881B21FFA89F008E000000000224277
:105090008006002000100140000C0140FBF7E8FFF3
:1050A0001FFA8BF11FFA8AF0FBF7E2FF641C002E57
:1050B00003DA06EB8406B61D04E0601B06EB8006EF
:1050C0006D1E0A36781981B208EB040080B2FBF736
:1050D000CFFFAC429BDDBDE8FC9F2DE9F84F814638
:1050E0001E460F468B46580700D0012000EBD60025
:1050F00071084843203AC0B202F0FF0A0025009030
:1051000041E00C2E10D0102E12D0182E3ED1764930
:105110000AEBCA0001EB80004FF00008445D200656
:105120000AD5724802880BE00AEB4A007049F1E7A1
:10513000704901EB0A10EFE70A9828B96B484288DA
:1051400039464846FBF7B7FF6006040E6A487F1CE5
:10515000BFB20188494519D9A7EB0B00B04209D16C
:1051600009F101001FFA80F963485F46018849454B
:105170000CD906E008F1010000F0FF08B8F1080FB3
:10518000CDD36D1CEDB200988542BAD387E50346B6
:10519000012000E05843491EC9B2FBD270472DE9F7
:1051A000FF4F81B00027DDF838B01D46924680469B
:1051B0003C46B9464FEA5B0627E0281B401EC1B2B9
:1051C0000A20FFF7E4FFBAFBF0F00A21B0FBF1F28E
:1051D00001FB120027B9691E8C4201DA48B1012790
:1051E0003030C2B206FB048080B25B46CDF800903E
:1051F00006E006FB048080B25B462022CDF80090DA
:105200000299FFF76AFF641CE4B2AC42D5D305B043
:10521000BDE8F08F2DE9FF4F81B08046DDF83CA05E
:105220000E984FF000091F4693464C460AF00105C0
:1052300046082BE0381B401EC1B20A20FFF7A7FF2B
:10524000BBFBF0F00A21B0FBF1F201FB1200B9F157
:10525000000F05D1791E8C4202DA48B14FF00109E6
:105260003030C2B206FB048080B200950E9B08E08D
:105270005FEA0A6006FB04800E9B80B2009508D5A9
:1052800030220299FFF729FF641CE4B2BC42D1D35B
:10529000BDE72022F5E72DE9F84F044600F0FF08AE
:1052A00010190D46DDE90A761FFA80FA58191FFA1F
:1052B00080F94FF0000B11E0544502D3E819444641
:1052C00085B24D450FD23B4629462046CDF800B069
:1052D000FFF703FF04EB570084B2761C3278A2F18B
:1052E00020005E28E8D9DAE47A9901081600002047
:1052F000168F01088A9301088006002008B5012155
:10530000102002F098F94FF4C050ADF800001020C2
:105310008DF8030003208DF8020069467F4801F0F4
:10532000A2FF7F480121C0F8B011C0F8AC1108BD40
:1053300070B57A48416821F470414160416841F498
:1053400040514160764C0120C4F8AC01C4F8B00172
:10535000042004F5D67401F0FDFB0025256004202F
:1053600001F0F8FB656070BD6C4810B5416821F430
:1053700070414160416841F440514160684C0020F7
:10538000C4F8B001C4F8AC01042004F5D67401F0EF
:10539000E1FB012060602060BDE81040042001F0C6
:1053A000D9BB70B55D480024416821F4704141606B
:1053B000416841F400414160594D0126C5F8AC6196
:1053C000304601F0C7FBC5F8B061012001F0C2FB17
:1053D00007E0641CE4B2FA2C03D9FFF7C5FF0120F3
:1053E00070BDD5F82C010028F3D1C5F8B00170BD0F
:1053F00070B54B4C0025C4F8B0514848416821F4C1
:1054000070414160416841F440514160C4F8AC5181
:10541000022004F5D67401F09DFB0120606002209B
:1054200001F098FB656070BD70B53D4C0026C4F876
:10543000B0613A48416821F470414160416841F4EB
:10544000405141600125C4F8AC51022004F5D674E6
:1054500001F080FB6560022001F07CFB666070BD9E
:105460002DE9F04105462D48416821F47041416025
:10547000416841F440514160294E0027C6F8B0719F
:105480003C464FF00108E809C6F8AC016806050E75
:10549000022001F05FFBC6F8B081022001F05AFB48
:1054A000C6F8B071022001F055FB641CE4B2082C70
:1054B000E9D3BDE8F0812DE9F04781461748002483
:1054C000416821F470414160416841F4004141600C
:1054D000134E254627464FF00108C6F8B07102204A
:1054E00001F038FBC6F8B0816006040ED6F82C0136
:1054F00008B1641CE4B2012001F02CFB6D1CEDB27C
:10550000082DEAD3B9F1000F04D0FFF771FF204650
:10551000BDE8F087FFF788FFF9E7000000100140C1
:1055200000002242FFF7EABE10B50446FFF700FF75
:10553000200AA02101EB4000C0B2FFF791FFFFF766
:1055400030FFE0B2FFF78CFFFFF72BFFFFF7F0FE15
:10555000A120FFF785FFFFF724FF0020FFF7ABFF37
:105560000446FFF701FF204610BD70B50D46044606
:10557000FFF7DEFE200AA02101EB4000C0B2FFF7DA
:105580006FFFFFF70EFFE0B2FFF76AFFFFF709FFBB
:105590002846FFF765FFFFF704FFFFF7E5FEBDE8CC
:1055A00070400A2001F0EDBA2DE9F04116460D4693
:1055B0000746002409E0E00025FA00F0C1B23819DE
:1055C00080B2FFF7D2FF641CE4B2B442F3D3BDE86B
:1055D000F0812DE9F0410D460146002004464E19A8
:1055E00008E00702301B401E80B2FFF79DFF641CDD
:1055F0003844E4B2AC42F4D3E9E710B5FF20FFF73A
:1056000093FF55280AD05521FF20FFF7AEFFFF205A
:10561000FFF78AFF552801D0012010BD002010BDE2
:1056200070B515460E46044608E02046641CA4B238
:10563000FFF77AFF6D1E06F8010BADB2002DF4D115
:1056400070BD70B514460D46064606E02978304612
:10565000FFF78BFF761CB6B26D1C641EA4B2F5D2A8
:1056600070BD00000A2001F075BA8348816941F0DD
:1056700010018161814801684FF20F02914301607E
:10568000016843F2030211430160C16841F0020165
:10569000C160C16841F00801C160704770B57748CA
:1056A000016821F470410160016841F440510160DA
:1056B000734C0120C4F88C01C4F880010A2004F561
:1056C000C07401F047FA0025E5600A2001F042FAB3
:1056D000256070BD70B56948016821F470410160B2
:1056E000016841F440510160654C0020C4F880011C
:1056F000C4F88C010A2004F5C07401F02BFA0125CE
:1057000025600A2001F026FAE56070BD70B55B489F
:105710000024016821F470410160016841F40041F6
:105720000160574D0126C5F88C61304601F012FA30
:10573000C5F88061012001F00DFA07E0641CE4B2B5
:10574000FA2C03D9FFF7C6FF012070BDD5F80C0174
:105750000028F3D1C5F8800170BD70B5484C002514
:10576000C4F880514548016821F470410160016826
:1057700041F440510160C4F88C510A2004F5C07412
:1057800001F0E8F9012020600A2001F0E3F925602A
:1057900070BD70B53A4C0026C4F880613748016886
:1057A00021F470410160016841F44051016001251C
:1057B000C4F88C510A2004F5C07401F0CBF92560BF
:1057C0000A2001F0C7F9266070BD2DE9F0410546B9
:1057D0002A48016821F470410160016841F4405198
:1057E0000160274E0027C6F880713C464FF0010843
:1057F000E809C6F88C016806050EC6F880810A2003
:1058000001F0A8F9C6F880710A2001F0A3F9641C20
:10581000E4B2082CECD3BDE8F0812DE9F0478146D5
:1058200016480024016821F470410160016841F4C8
:1058300000410160124E254627464FF00108C6F888
:1058400080711E2001F086F9C6F880816006040E82
:10585000D6F80C0108B1641CE4B26D1CEDB2082D41
:10586000EDD3B9F1000F04D0FFF777FF2046BDE874
:10587000F087FFF78EFFF9E70010024000100140AB
:10588000000022422DE9F04115460E46044600274D
:10589000FFF704FF2820FFF798FFFFF737FF200AE4
:1058A000FFF793FFFFF732FFE0B2FFF78EFFFFF73E
:1058B0002DFF002408E0305DFFF787FFFFF726FF8C
:1058C000070003D1641CE4B2AC42F4D3FFF702FF3B
:1058D0003846BDE8F08108B500218DF800108DF83C
:1058E0000100AD489DF80020435C491C1A44C9B230
:1058F0008DF80020B829F5D3D0B2C043401C8DF8F4
:105900000000B822A44948F24700FFF7BBFF02227B
:10591000694648F2FF00FFF7B5FF002008BD2DE9FA
:10592000F04115460F460446FFF7B8FE2820FFF762
:105930004CFFFFF7EBFE200AFFF747FFFFF7E6FEFD
:10594000E0B2FFF742FFFFF7E1FEFFF7A7FE2920D5
:10595000FFF73BFFFFF7DAFE00246E1E09E0B442BA
:1059600001D0012000E00020FFF757FF3855641CEC
:10597000E4B2AC42F3D3BDE8F041FFF7ABBE7CB577
:105980008648816941F010018161854C206820F0D2
:10599000F0002060206840F030002060E06840F0B7
:1059A0000200E060606820F470006060606840F4AD
:1059B00040106060E06840F40050E060FFF755FE82
:1059C000784E0025C6F8B4510A2006F5DA7601F0C3
:1059D000D8F8012030600A2001F0D3F8206820F0C8
:1059E000F0002060206840F080002060E06820F037
:1059F0000200E060642001F0C4F80422694648F225
:105A00004010FFF78CFF8DF80450694666A004F043
:105A1000FDFE68A1684605F00DFA08B101207CBDC5
:105A200002208DF8000048F2400401226946204619
:105A3000FFF728FF01226946E01DFFF770FF9DF880
:105A40000010602905D25DA004F0E0FE0120FFF700
:105A500042FF0A2001F095F88DF8005001226946B6
:105A60002046FFF70FFF00207CBD2DE9F147584E7F
:105A700000244FF00A09307883B0401CC0B2B0FB5C
:105A8000F9F209FB1201534DA046307009B10A2802
:105A900064D248F24E1A012203A95046FFF73FFF95
:105AA0009DF80C004FF00007010748D000F00F01EF
:105AB000062944D2FF2088408DF80400C04340F0FE
:105AC000C00085F820004FF0010895F8201008FA72
:105AD00004F0014226D030480422B830694630F83C
